{
  "_format": "hh-sol-artifact-1",
  "contractName": "contractApi",
  "sourceName": "contracts/contractApi.sol",
  "abi": [
    {
      "inputs": [],
      "stateMutability": "nonpayable",
      "type": "constructor"
    },
    {
      "inputs": [
        {
          "internalType": "uint256",
          "name": "_id",
          "type": "uint256"
        }
      ],
      "name": "deleteProduct",
      "outputs": [],
      "stateMutability": "nonpayable",
      "type": "function"
    },
    {
      "inputs": [],
      "name": "getAllProducts",
      "outputs": [
        {
          "components": [
            {
              "internalType": "uint256",
              "name": "id",
              "type": "uint256"
            },
            {
              "internalType": "string",
              "name": "name",
              "type": "string"
            },
            {
              "internalType": "uint256",
              "name": "price",
              "type": "uint256"
            },
            {
              "internalType": "uint256",
              "name": "quantity",
              "type": "uint256"
            }
          ],
          "internalType": "struct contractApi.Product[]",
          "name": "",
          "type": "tuple[]"
        }
      ],
      "stateMutability": "view",
      "type": "function"
    },
    {
      "inputs": [
        {
          "internalType": "uint256",
          "name": "_id",
          "type": "uint256"
        }
      ],
      "name": "getProduct",
      "outputs": [
        {
          "internalType": "string",
          "name": "",
          "type": "string"
        },
        {
          "internalType": "uint256",
          "name": "",
          "type": "uint256"
        },
        {
          "internalType": "uint256",
          "name": "",
          "type": "uint256"
        }
      ],
      "stateMutability": "view",
      "type": "function"
    },
    {
      "inputs": [
        {
          "internalType": "uint256",
          "name": "",
          "type": "uint256"
        }
      ],
      "name": "productArray",
      "outputs": [
        {
          "internalType": "uint256",
          "name": "id",
          "type": "uint256"
        },
        {
          "internalType": "string",
          "name": "name",
          "type": "string"
        },
        {
          "internalType": "uint256",
          "name": "price",
          "type": "uint256"
        },
        {
          "internalType": "uint256",
          "name": "quantity",
          "type": "uint256"
        }
      ],
      "stateMutability": "view",
      "type": "function"
    },
    {
      "inputs": [
        {
          "internalType": "uint256",
          "name": "",
          "type": "uint256"
        }
      ],
      "name": "products",
      "outputs": [
        {
          "internalType": "uint256",
          "name": "id",
          "type": "uint256"
        },
        {
          "internalType": "string",
          "name": "name",
          "type": "string"
        },
        {
          "internalType": "uint256",
          "name": "price",
          "type": "uint256"
        },
        {
          "internalType": "uint256",
          "name": "quantity",
          "type": "uint256"
        }
      ],
      "stateMutability": "view",
      "type": "function"
    },
    {
      "inputs": [],
      "name": "removeMe",
      "outputs": [
        {
          "internalType": "uint256",
          "name": "id",
          "type": "uint256"
        },
        {
          "internalType": "string",
          "name": "name",
          "type": "string"
        },
        {
          "internalType": "uint256",
          "name": "price",
          "type": "uint256"
        },
        {
          "internalType": "uint256",
          "name": "quantity",
          "type": "uint256"
        }
      ],
      "stateMutability": "view",
      "type": "function"
    },
    {
      "inputs": [
        {
          "internalType": "uint256",
          "name": "_id",
          "type": "uint256"
        },
        {
          "internalType": "string",
          "name": "_name",
          "type": "string"
        },
        {
          "internalType": "uint256",
          "name": "_price",
          "type": "uint256"
        },
        {
          "internalType": "uint256",
          "name": "_quantity",
          "type": "uint256"
        }
      ],
      "name": "setProduct",
      "outputs": [],
      "stateMutability": "nonpayable",
      "type": "function"
    },
    {
      "inputs": [
        {
          "internalType": "uint256",
          "name": "_id",
          "type": "uint256"
        },
        {
          "internalType": "string",
          "name": "_name",
          "type": "string"
        },
        {
          "internalType": "uint256",
          "name": "_price",
          "type": "uint256"
        },
        {
          "internalType": "uint256",
          "name": "_quantity",
          "type": "uint256"
        }
      ],
      "name": "updateProduct",
      "outputs": [],
      "stateMutability": "nonpayable",
      "type": "function"
    }
  ],
  "bytecode": "0x608060405234801561001057600080fd5b50336000806101000a81548173ffffffffffffffffffffffffffffffffffffffff021916908373ffffffffffffffffffffffffffffffffffffffff1602179055506114dd806100606000396000f3fe608060405234801561001057600080fd5b50600436106100885760003560e01c80637acc0b201161005b5780637acc0b20146101165780639d08f4a914610149578063b9db15b41461016a578063ed90c7b71461019c57610088565b806302ee3a521461008d5780631cce0cf5146100ab5780632d561787146100de5780634a20087e146100fa575b600080fd5b6100956101b8565b6040516100a29190610fa6565b60405180910390f35b6100c560048036038101906100c09190611008565b6102c7565b6040516100d5949392919061108e565b60405180910390f35b6100f860048036038101906100f3919061120f565b61038f565b005b610114600480360381019061010f919061120f565b61054b565b005b610130600480360381019061012b9190611008565b6106aa565b604051610140949392919061108e565b60405180910390f35b610151610762565b604051610161949392919061108e565b60405180910390f35b610184600480360381019061017f9190611008565b610808565b60405161019393929190611292565b60405180910390f35b6101b660048036038101906101b19190611008565b610956565b005b60606006805480602002602001604051908101604052809291908181526020016000905b828210156102be578382906000526020600020906004020160405180608001604052908160008201548152602001600182018054610219906112ff565b80601f0160208091040260200160405190810160405280929190818152602001828054610245906112ff565b80156102925780601f1061026757610100808354040283529160200191610292565b820191906000526020600020905b81548152906001019060200180831161027557829003601f168201915b5050505050815260200160028201548152602001600382015481525050815260200190600101906101dc565b50505050905090565b600681815481106102d757600080fd5b9060005260206000209060040201600091509050806000015490806001018054610300906112ff565b80601f016020809104026020016040519081016040528092919081815260200182805461032c906112ff565b80156103795780601f1061034e57610100808354040283529160200191610379565b820191906000526020600020905b81548152906001019060200180831161035c57829003601f168201915b5050505050908060020154908060030154905084565b60008054906101000a900473ffffffffffffffffffffffffffffffffffffffff1673ffffffffffffffffffffffffffffffffffffffff163373ffffffffffffffffffffffffffffffffffffffff16146103e757600080fd5b600060056000868152602001908152602001600020600001541415610441576040517f08c379a00000000000000000000000000000000000000000000000000000000081526004016104389061137d565b60405180910390fd5b61044a84610956565b604051806080016040528085815260200184815260200183815260200182815250600560008681526020019081526020016000206000820151816000015560208201518160010190805190602001906104a4929190610c5f565b5060408201518160020155606082015181600301559050506006604051806080016040528086815260200185815260200184815260200183815250908060018154018082558091505060019003906000526020600020906004020160009091909190915060008201518160000155602082015181600101908051906020019061052e929190610c5f565b506040820151816002015560608201518160030155505050505050565b60008054906101000a900473ffffffffffffffffffffffffffffffffffffffff1673ffffffffffffffffffffffffffffffffffffffff163373ffffffffffffffffffffffffffffffffffffffff16146105a357600080fd5b600060405180608001604052808681526020018581526020018481526020018381525090508060056000878152602001908152602001600020600082015181600001556020820151816001019080519060200190610602929190610c5f565b5060408201518160020155606082015181600301559050506006604051806080016040528087815260200186815260200185815260200184815250908060018154018082558091505060019003906000526020600020906004020160009091909190915060008201518160000155602082015181600101908051906020019061068c929190610c5f565b50604082015181600201556060820151816003015550505050505050565b60056020528060005260406000206000915090508060000154908060010180546106d3906112ff565b80601f01602080910402602001604051908101604052809291908181526020018280546106ff906112ff565b801561074c5780601f106107215761010080835404028352916020019161074c565b820191906000526020600020905b81548152906001019060200180831161072f57829003601f168201915b5050505050908060020154908060030154905084565b6001806000015490806001018054610779906112ff565b80601f01602080910402602001604051908101604052809291908181526020018280546107a5906112ff565b80156107f25780601f106107c7576101008083540402835291602001916107f2565b820191906000526020600020905b8154815290600101906020018083116107d557829003601f168201915b5050505050908060020154908060030154905084565b6060600080600060056000868152602001908152602001600020600001541415610867576040517f08c379a000000000000000000000000000000000000000000000000000000000815260040161085e9061137d565b60405180910390fd5b600060056000868152602001908152602001600020604051806080016040529081600082015481526020016001820180546108a1906112ff565b80601f01602080910402602001604051908101604052809291908181526020018280546108cd906112ff565b801561091a5780601f106108ef5761010080835404028352916020019161091a565b820191906000526020600020905b8154815290600101906020018083116108fd57829003601f168201915b50505050508152602001600282015481526020016003820154815250509050806020015181604001518260600151935093509350509193909250565b60008054906101000a900473ffffffffffffffffffffffffffffffffffffffff1673ffffffffffffffffffffffffffffffffffffffff163373ffffffffffffffffffffffffffffffffffffffff16146109ae57600080fd5b600060056000838152602001908152602001600020600001541415610a08576040517f08c379a00000000000000000000000000000000000000000000000000000000081526004016109ff9061137d565b60405180910390fd5b60056000828152602001908152602001600020600080820160009055600182016000610a349190610ce5565b60028201600090556003820160009055505060005b600680549050811015610c08578160068281548110610a6b57610a6a61139d565b5b9060005260206000209060040201600001541415610bf55760068181548110610a9757610a9661139d565b5b90600052602060002090600402016001600082015481600001556001820181600101908054610ac5906112ff565b610ad0929190610d25565b50600282015481600201556003820154816003015590505060066001600680549050610afc91906113fb565b81548110610b0d57610b0c61139d565b5b906000526020600020906004020160068281548110610b2f57610b2e61139d565b5b9060005260206000209060040201600082015481600001556001820181600101908054610b5b906112ff565b610b66929190610d25565b506002820154816002015560038201548160030155905050600160066001600680549050610b9491906113fb565b81548110610ba557610ba461139d565b5b9060005260206000209060040201600082015481600001556001820181600101908054610bd1906112ff565b610bdc929190610d25565b5060028201548160020155600382015481600301559050505b8080610c009061142f565b915050610a49565b506006805480610c1b57610c1a611478565b5b6001900381819060005260206000209060040201600080820160009055600182016000610c489190610ce5565b600282016000905560038201600090555050905550565b828054610c6b906112ff565b90600052602060002090601f016020900481019282610c8d5760008555610cd4565b82601f10610ca657805160ff1916838001178555610cd4565b82800160010185558215610cd4579182015b82811115610cd3578251825591602001919060010190610cb8565b5b509050610ce19190610db2565b5090565b508054610cf1906112ff565b6000825580601f10610d035750610d22565b601f016020900490600052602060002090810190610d219190610db2565b5b50565b828054610d31906112ff565b90600052602060002090601f016020900481019282610d535760008555610da1565b82601f10610d645780548555610da1565b82800160010185558215610da157600052602060002091601f016020900482015b82811115610da0578254825591600101919060010190610d85565b5b509050610dae9190610db2565b5090565b5b80821115610dcb576000816000905550600101610db3565b5090565b600081519050919050565b600082825260208201905092915050565b6000819050602082019050919050565b6000819050919050565b610e0e81610dfb565b82525050565b600081519050919050565b600082825260208201905092915050565b60005b83811015610e4e578082015181840152602081019050610e33565b83811115610e5d576000848401525b50505050565b6000601f19601f8301169050919050565b6000610e7f82610e14565b610e898185610e1f565b9350610e99818560208601610e30565b610ea281610e63565b840191505092915050565b6000608083016000830151610ec56000860182610e05565b5060208301518482036020860152610edd8282610e74565b9150506040830151610ef26040860182610e05565b506060830151610f056060860182610e05565b508091505092915050565b6000610f1c8383610ead565b905092915050565b6000602082019050919050565b6000610f3c82610dcf565b610f468185610dda565b935083602082028501610f5885610deb565b8060005b85811015610f945784840389528151610f758582610f10565b9450610f8083610f24565b925060208a01995050600181019050610f5c565b50829750879550505050505092915050565b60006020820190508181036000830152610fc08184610f31565b905092915050565b6000604051905090565b600080fd5b600080fd5b610fe581610dfb565b8114610ff057600080fd5b50565b60008135905061100281610fdc565b92915050565b60006020828403121561101e5761101d610fd2565b5b600061102c84828501610ff3565b91505092915050565b61103e81610dfb565b82525050565b600082825260208201905092915050565b600061106082610e14565b61106a8185611044565b935061107a818560208601610e30565b61108381610e63565b840191505092915050565b60006080820190506110a36000830187611035565b81810360208301526110b58186611055565b90506110c46040830185611035565b6110d16060830184611035565b95945050505050565b600080fd5b600080fd5b7f4e487b7100000000000000000000000000000000000000000000000000000000600052604160045260246000fd5b61111c82610e63565b810181811067ffffffffffffffff8211171561113b5761113a6110e4565b5b80604052505050565b600061114e610fc8565b905061115a8282611113565b919050565b600067ffffffffffffffff82111561117a576111796110e4565b5b61118382610e63565b9050602081019050919050565b82818337600083830152505050565b60006111b26111ad8461115f565b611144565b9050828152602081018484840111156111ce576111cd6110df565b5b6111d9848285611190565b509392505050565b600082601f8301126111f6576111f56110da565b5b813561120684826020860161119f565b91505092915050565b6000806000806080858703121561122957611228610fd2565b5b600061123787828801610ff3565b945050602085013567ffffffffffffffff81111561125857611257610fd7565b5b611264878288016111e1565b935050604061127587828801610ff3565b925050606061128687828801610ff3565b91505092959194509250565b600060608201905081810360008301526112ac8186611055565b90506112bb6020830185611035565b6112c86040830184611035565b949350505050565b7f4e487b7100000000000000000000000000000000000000000000000000000000600052602260045260246000fd5b6000600282049050600182168061131757607f821691505b6020821081141561132b5761132a6112d0565b5b50919050565b7f50726f64756374206973206e6f7420617661696c61626c650000000000000000600082015250565b6000611367601883611044565b915061137282611331565b602082019050919050565b600060208201905081810360008301526113968161135a565b9050919050565b7f4e487b7100000000000000000000000000000000000000000000000000000000600052603260045260246000fd5b7f4e487b7100000000000000000000000000000000000000000000000000000000600052601160045260246000fd5b600061140682610dfb565b915061141183610dfb565b925082821015611424576114236113cc565b5b828203905092915050565b600061143a82610dfb565b91507fffffffffffffffffffffffffffffffffffffffffffffffffffffffffffffffff82141561146d5761146c6113cc565b5b600182019050919050565b7f4e487b7100000000000000000000000000000000000000000000000000000000600052603160045260246000fdfea2646970667358221220ccb356516c86846020bc6e33bbe02d37ff3ee3d342b02eacbde6092d4984800464736f6c634300080b0033",
  "linkReferences": {},
  "deployedLinkReferences": {}
}